{
  "contractName": "ProxyCall",
  "abi": [
    {
      "inputs": [
        {
          "internalType": "address",
          "name": "delegateAddress",
          "type": "address"
        }
      ],
      "payable": false,
      "stateMutability": "nonpayable",
      "type": "constructor"
    },
    {
      "anonymous": false,
      "inputs": [
        {
          "indexed": false,
          "internalType": "bytes",
          "name": "result",
          "type": "bytes"
        }
      ],
      "name": "LogResult",
      "type": "event"
    },
    {
      "payable": false,
      "stateMutability": "nonpayable",
      "type": "fallback"
    },
    {
      "constant": true,
      "inputs": [],
      "name": "delegate",
      "outputs": [
        {
          "internalType": "address",
          "name": "",
          "type": "address"
        }
      ],
      "payable": false,
      "stateMutability": "view",
      "type": "function"
    },
    {
      "constant": true,
      "inputs": [],
      "name": "owner",
      "outputs": [
        {
          "internalType": "address",
          "name": "",
          "type": "address"
        }
      ],
      "payable": false,
      "stateMutability": "view",
      "type": "function"
    }
  ],
  "bytecode": "0x608060405234801561001057600080fd5b506040516103ce3803806103ce8339818101604052602081101561003357600080fd5b8101908080519060200190929190505050336000806101000a81548173ffffffffffffffffffffffffffffffffffffffff021916908373ffffffffffffffffffffffffffffffffffffffff16021790555080600160006101000a81548173ffffffffffffffffffffffffffffffffffffffff021916908373ffffffffffffffffffffffffffffffffffffffff160217905550506102f9806100d56000396000f3fe608060405234801561001057600080fd5b50600436106100365760003560e01c80638da5cb5b146101e5578063c89e43611461022f575b60006060600160009054906101000a900473ffffffffffffffffffffffffffffffffffffffff1673ffffffffffffffffffffffffffffffffffffffff166000366040518083838082843780830192505050925050506000604051808303816000865af19150503d80600081146100c8576040519150601f19603f3d011682016040523d82523d6000602084013e6100cd565b606091505b509150915081610145576040517f08c379a00000000000000000000000000000000000000000000000000000000081526004018080602001828103825260148152602001807f65787465726e616c2063616c6c206661696c656400000000000000000000000081525060200191505060405180910390fd5b7f958c0193cea72acb1ba51b31092fb4edff6e5bf84a2289db7e76bea413645df3816040518080602001828103825283818151815260200191508051906020019080838360005b838110156101a757808201518184015260208101905061018c565b50505050905090810190601f1680156101d45780820380516001836020036101000a031916815260200191505b509250505060405180910390a15050005b6101ed610279565b604051808273ffffffffffffffffffffffffffffffffffffffff1673ffffffffffffffffffffffffffffffffffffffff16815260200191505060405180910390f35b61023761029e565b604051808273ffffffffffffffffffffffffffffffffffffffff1673ffffffffffffffffffffffffffffffffffffffff16815260200191505060405180910390f35b6000809054906101000a900473ffffffffffffffffffffffffffffffffffffffff1681565b600160009054906101000a900473ffffffffffffffffffffffffffffffffffffffff168156fea265627a7a723158204e76ac8f9bfb88b51b936fefd1e1131917eab44909f45550ba9fcc1c2684ab8f64736f6c63430005100032",
  "source": "pragma solidity ^0.5.0;\r\n\r\ncontract ProxyCall {\r\n    address public owner;\r\n    address public delegate; // contract to delegate calls to\r\n\r\n    event LogResult(bytes result);\r\n\r\n    constructor(address delegateAddress) public {\r\n        owner = msg.sender;\r\n        delegate = delegateAddress;\r\n    }\r\n\r\n    function() external {\r\n        (bool success, bytes memory returnData) = delegate.call(msg.data);\r\n        require(success, \"external call failed\");\r\n        emit LogResult(returnData);\r\n    }\r\n}\r\n",
  "sourcePath": "C:\\Users\\majid\\Desktop\\GBC\\Advanced Smart contract\\labs\\ProxyDelegate-solidity\\contracts\\ProxyCall.sol",
  "compiler": {
    "name": "solc",
    "version": "0.5.16+commit.9c3226ce.Emscripten.clang"
  },
  "schemaVersion": "3.2.0",
  "updatedAt": "2020-07-11T01:22:12.149Z",
  "devdoc": {
    "methods": {}
  },
  "userdoc": {
    "methods": {}
  }
}