{
  "contractName": "ProxyDelegate",
  "abi": [
    {
      "inputs": [
        {
          "internalType": "address",
          "name": "delegateAddress",
          "type": "address"
        }
      ],
      "payable": false,
      "stateMutability": "nonpayable",
      "type": "constructor"
    },
    {
      "anonymous": false,
      "inputs": [
        {
          "indexed": false,
          "internalType": "bytes",
          "name": "result",
          "type": "bytes"
        }
      ],
      "name": "LogResult",
      "type": "event"
    },
    {
      "payable": false,
      "stateMutability": "nonpayable",
      "type": "fallback"
    },
    {
      "constant": true,
      "inputs": [],
      "name": "delegate",
      "outputs": [
        {
          "internalType": "address",
          "name": "",
          "type": "address"
        }
      ],
      "payable": false,
      "stateMutability": "view",
      "type": "function"
    },
    {
      "constant": true,
      "inputs": [],
      "name": "owner",
      "outputs": [
        {
          "internalType": "address",
          "name": "",
          "type": "address"
        }
      ],
      "payable": false,
      "stateMutability": "view",
      "type": "function"
    },
    {
      "constant": true,
      "inputs": [],
      "name": "version",
      "outputs": [
        {
          "internalType": "uint256",
          "name": "",
          "type": "uint256"
        }
      ],
      "payable": false,
      "stateMutability": "view",
      "type": "function"
    }
  ],
  "bytecode": "0x6080604052600160025534801561001557600080fd5b506040516104003803806104008339818101604052602081101561003857600080fd5b8101908080519060200190929190505050336000806101000a81548173ffffffffffffffffffffffffffffffffffffffff021916908373ffffffffffffffffffffffffffffffffffffffff16021790555080600160006101000a81548173ffffffffffffffffffffffffffffffffffffffff021916908373ffffffffffffffffffffffffffffffffffffffff16021790555050610326806100da6000396000f3fe608060405234801561001057600080fd5b50600436106100415760003560e01c806354fd4d50146101ee5780638da5cb5b1461020c578063c89e436114610256575b60006060600160009054906101000a900473ffffffffffffffffffffffffffffffffffffffff1673ffffffffffffffffffffffffffffffffffffffff16600036604051808383808284378083019250505092505050600060405180830381855af49150503d80600081146100d1576040519150601f19603f3d011682016040523d82523d6000602084013e6100d6565b606091505b50915091508161014e576040517f08c379a00000000000000000000000000000000000000000000000000000000081526004018080602001828103825260148152602001807f65787465726e616c2063616c6c206661696c656400000000000000000000000081525060200191505060405180910390fd5b7f958c0193cea72acb1ba51b31092fb4edff6e5bf84a2289db7e76bea413645df3816040518080602001828103825283818151815260200191508051906020019080838360005b838110156101b0578082015181840152602081019050610195565b50505050905090810190601f1680156101dd5780820380516001836020036101000a031916815260200191505b509250505060405180910390a15050005b6101f66102a0565b6040518082815260200191505060405180910390f35b6102146102a6565b604051808273ffffffffffffffffffffffffffffffffffffffff1673ffffffffffffffffffffffffffffffffffffffff16815260200191505060405180910390f35b61025e6102cb565b604051808273ffffffffffffffffffffffffffffffffffffffff1673ffffffffffffffffffffffffffffffffffffffff16815260200191505060405180910390f35b60025481565b6000809054906101000a900473ffffffffffffffffffffffffffffffffffffffff1681565b600160009054906101000a900473ffffffffffffffffffffffffffffffffffffffff168156fea265627a7a72315820596937303158a51731edcf337c978929f9c34271cee55e1eb606fc7bbfe3612b64736f6c63430005100032",
  "source": "pragma solidity ^0.5.0;\r\n\r\ncontract ProxyDelegate {\r\n    address public owner;\r\n    address public delegate; // contract to delegate calls to\r\n    uint256 public version = 1; // To fix |setVersion by delegatecall should pass| test case\r\n\r\n    event LogResult(bytes result);\r\n\r\n    constructor(address delegateAddress) public {\r\n        owner = msg.sender;\r\n        delegate = delegateAddress;\r\n    }\r\n\r\n    function() external {\r\n        (bool success, bytes memory returnData) = delegate.delegatecall(\r\n            msg.data\r\n        );\r\n        require(success, \"external call failed\");\r\n        emit LogResult(returnData);\r\n    }\r\n}\r\n",
  "sourcePath": "C:\\Users\\majid\\Desktop\\GBC\\Advanced Smart contract\\labs\\ProxyDelegate-solidity\\contracts\\ProxyDelegate.sol",
  "compiler": {
    "name": "solc",
    "version": "0.5.16+commit.9c3226ce.Emscripten.clang"
  },
  "schemaVersion": "3.2.0",
  "updatedAt": "2020-07-11T01:05:27.141Z",
  "devdoc": {
    "methods": {}
  },
  "userdoc": {
    "methods": {}
  }
}