{
  "contractName": "SomeLibrary",
  "abi": [
    {
      "constant": true,
      "inputs": [],
      "name": "version",
      "outputs": [
        {
          "internalType": "uint256",
          "name": "",
          "type": "uint256"
        }
      ],
      "payable": false,
      "stateMutability": "view",
      "type": "function"
    },
    {
      "constant": false,
      "inputs": [
        {
          "internalType": "uint256",
          "name": "newVersion",
          "type": "uint256"
        }
      ],
      "name": "setVersion",
      "outputs": [],
      "payable": false,
      "stateMutability": "nonpayable",
      "type": "function"
    },
    {
      "constant": true,
      "inputs": [],
      "name": "getMsgSender",
      "outputs": [
        {
          "internalType": "address",
          "name": "",
          "type": "address"
        }
      ],
      "payable": false,
      "stateMutability": "view",
      "type": "function"
    }
  ],
  "bytecode": "0x6080604052600160005534801561001557600080fd5b5061011d806100256000396000f3fe6080604052348015600f57600080fd5b5060043610603c5760003560e01c8063408def1e14604157806354fd4d5014606c5780637a6ce2e1146088575b600080fd5b606a60048036036020811015605557600080fd5b810190808035906020019092919050505060d0565b005b607260da565b6040518082815260200191505060405180910390f35b608e60e0565b604051808273ffffffffffffffffffffffffffffffffffffffff1673ffffffffffffffffffffffffffffffffffffffff16815260200191505060405180910390f35b8060008190555050565b60005481565b60003390509056fea265627a7a72315820a49e8a68b60da99bb370d73a93eb4c5fbbdc0d43ec56a14652792c02e5521a7464736f6c63430005100032",
  "source": "pragma solidity ^0.5.0;\r\n\r\ncontract SomeLibrary {\r\n    uint public version = 1;\r\n\r\n    function setVersion(uint newVersion) public {\r\n        version = newVersion;\r\n    }\r\n\r\n    function getMsgSender() public view returns(address){\r\n        return msg.sender;\r\n    }\r\n}",
  "sourcePath": "C:\\Users\\majid\\Desktop\\GBC\\Advanced Smart contract\\labs\\ProxyDelegate-solidity\\contracts\\SomeLibrary.sol",
  "compiler": {
    "name": "solc",
    "version": "0.5.16+commit.9c3226ce.Emscripten.clang"
  },
  "schemaVersion": "3.2.0",
  "updatedAt": "2020-07-11T01:22:12.159Z",
  "devdoc": {
    "methods": {}
  },
  "userdoc": {
    "methods": {}
  }
}